{
  "_format": "hh-sol-artifact-1",
  "contractName": "MashToken",
  "sourceName": "contracts/MashToken.sol",
  "abi": [
    {
      "inputs": [
        {
          "internalType": "uint256",
          "name": "initialSupply",
          "type": "uint256"
        }
      ],
      "stateMutability": "nonpayable",
      "type": "constructor"
    },
    {
      "anonymous": false,
      "inputs": [
        {
          "indexed": true,
          "internalType": "address",
          "name": "owner",
          "type": "address"
        },
        {
          "indexed": true,
          "internalType": "address",
          "name": "spender",
          "type": "address"
        },
        {
          "indexed": false,
          "internalType": "uint256",
          "name": "value",
          "type": "uint256"
        }
      ],
      "name": "Approval",
      "type": "event"
    },
    {
      "anonymous": false,
      "inputs": [
        {
          "indexed": true,
          "internalType": "address",
          "name": "previousOwner",
          "type": "address"
        },
        {
          "indexed": true,
          "internalType": "address",
          "name": "newOwner",
          "type": "address"
        }
      ],
      "name": "OwnershipTransferred",
      "type": "event"
    },
    {
      "anonymous": false,
      "inputs": [
        {
          "indexed": true,
          "internalType": "address",
          "name": "user",
          "type": "address"
        },
        {
          "indexed": false,
          "internalType": "uint256",
          "name": "amount",
          "type": "uint256"
        },
        {
          "indexed": false,
          "internalType": "uint256",
          "name": "timestamp",
          "type": "uint256"
        }
      ],
      "name": "Staked",
      "type": "event"
    },
    {
      "anonymous": false,
      "inputs": [
        {
          "indexed": true,
          "internalType": "address",
          "name": "from",
          "type": "address"
        },
        {
          "indexed": true,
          "internalType": "address",
          "name": "to",
          "type": "address"
        },
        {
          "indexed": false,
          "internalType": "uint256",
          "name": "value",
          "type": "uint256"
        }
      ],
      "name": "Transfer",
      "type": "event"
    },
    {
      "inputs": [
        {
          "internalType": "address",
          "name": "owner",
          "type": "address"
        },
        {
          "internalType": "address",
          "name": "spender",
          "type": "address"
        }
      ],
      "name": "allowance",
      "outputs": [
        {
          "internalType": "uint256",
          "name": "",
          "type": "uint256"
        }
      ],
      "stateMutability": "view",
      "type": "function"
    },
    {
      "inputs": [
        {
          "internalType": "address",
          "name": "spender",
          "type": "address"
        },
        {
          "internalType": "uint256",
          "name": "amount",
          "type": "uint256"
        }
      ],
      "name": "approve",
      "outputs": [
        {
          "internalType": "bool",
          "name": "",
          "type": "bool"
        }
      ],
      "stateMutability": "nonpayable",
      "type": "function"
    },
    {
      "inputs": [
        {
          "internalType": "address",
          "name": "account",
          "type": "address"
        }
      ],
      "name": "balanceOf",
      "outputs": [
        {
          "internalType": "uint256",
          "name": "",
          "type": "uint256"
        }
      ],
      "stateMutability": "view",
      "type": "function"
    },
    {
      "inputs": [],
      "name": "claim",
      "outputs": [],
      "stateMutability": "nonpayable",
      "type": "function"
    },
    {
      "inputs": [
        {
          "internalType": "uint256",
          "name": "amount",
          "type": "uint256"
        }
      ],
      "name": "claimAndWithdraw",
      "outputs": [],
      "stateMutability": "nonpayable",
      "type": "function"
    },
    {
      "inputs": [],
      "name": "decimals",
      "outputs": [
        {
          "internalType": "uint8",
          "name": "",
          "type": "uint8"
        }
      ],
      "stateMutability": "view",
      "type": "function"
    },
    {
      "inputs": [
        {
          "internalType": "address",
          "name": "spender",
          "type": "address"
        },
        {
          "internalType": "uint256",
          "name": "subtractedValue",
          "type": "uint256"
        }
      ],
      "name": "decreaseAllowance",
      "outputs": [
        {
          "internalType": "bool",
          "name": "",
          "type": "bool"
        }
      ],
      "stateMutability": "nonpayable",
      "type": "function"
    },
    {
      "inputs": [
        {
          "internalType": "address",
          "name": "spender",
          "type": "address"
        },
        {
          "internalType": "uint256",
          "name": "addedValue",
          "type": "uint256"
        }
      ],
      "name": "increaseAllowance",
      "outputs": [
        {
          "internalType": "bool",
          "name": "",
          "type": "bool"
        }
      ],
      "stateMutability": "nonpayable",
      "type": "function"
    },
    {
      "inputs": [],
      "name": "name",
      "outputs": [
        {
          "internalType": "string",
          "name": "",
          "type": "string"
        }
      ],
      "stateMutability": "view",
      "type": "function"
    },
    {
      "inputs": [],
      "name": "owner",
      "outputs": [
        {
          "internalType": "address",
          "name": "",
          "type": "address"
        }
      ],
      "stateMutability": "view",
      "type": "function"
    },
    {
      "inputs": [],
      "name": "renounceOwnership",
      "outputs": [],
      "stateMutability": "nonpayable",
      "type": "function"
    },
    {
      "inputs": [
        {
          "internalType": "uint256",
          "name": "_amount",
          "type": "uint256"
        }
      ],
      "name": "stake",
      "outputs": [],
      "stateMutability": "nonpayable",
      "type": "function"
    },
    {
      "inputs": [],
      "name": "stakingSummary",
      "outputs": [
        {
          "internalType": "uint256",
          "name": "",
          "type": "uint256"
        }
      ],
      "stateMutability": "view",
      "type": "function"
    },
    {
      "inputs": [],
      "name": "symbol",
      "outputs": [
        {
          "internalType": "string",
          "name": "",
          "type": "string"
        }
      ],
      "stateMutability": "view",
      "type": "function"
    },
    {
      "inputs": [],
      "name": "totalSupply",
      "outputs": [
        {
          "internalType": "uint256",
          "name": "",
          "type": "uint256"
        }
      ],
      "stateMutability": "view",
      "type": "function"
    },
    {
      "inputs": [
        {
          "internalType": "address",
          "name": "recipient",
          "type": "address"
        },
        {
          "internalType": "uint256",
          "name": "amount",
          "type": "uint256"
        }
      ],
      "name": "transfer",
      "outputs": [
        {
          "internalType": "bool",
          "name": "",
          "type": "bool"
        }
      ],
      "stateMutability": "nonpayable",
      "type": "function"
    },
    {
      "inputs": [
        {
          "internalType": "address",
          "name": "sender",
          "type": "address"
        },
        {
          "internalType": "address",
          "name": "recipient",
          "type": "address"
        },
        {
          "internalType": "uint256",
          "name": "amount",
          "type": "uint256"
        }
      ],
      "name": "transferFrom",
      "outputs": [
        {
          "internalType": "bool",
          "name": "",
          "type": "bool"
        }
      ],
      "stateMutability": "nonpayable",
      "type": "function"
    },
    {
      "inputs": [
        {
          "internalType": "address",
          "name": "newOwner",
          "type": "address"
        }
      ],
      "name": "transferOwnership",
      "outputs": [],
      "stateMutability": "nonpayable",
      "type": "function"
    },
    {
      "inputs": [],
      "name": "withdraw",
      "outputs": [],
      "stateMutability": "nonpayable",
      "type": "function"
    }
  ],
  "bytecode": "0x6080604052620186a06007553480156200001857600080fd5b5060405162003ba938038062003ba983398181016040528101906200003e91906200042f565b6040518060400160405280600981526020017f4d617368546f6b656e00000000000000000000000000000000000000000000008152506040518060400160405280600481526020017f4d415348000000000000000000000000000000000000000000000000000000008152508160039080519060200190620000c292919062000368565b508060049080519060200190620000db92919062000368565b505050620000fe620000f26200011760201b60201c565b6200011f60201b60201c565b620001103382620001e560201b60201c565b5062000621565b600033905090565b6000600560009054906101000a900473ffffffffffffffffffffffffffffffffffffffff16905081600560006101000a81548173ffffffffffffffffffffffffffffffffffffffff021916908373ffffffffffffffffffffffffffffffffffffffff1602179055508173ffffffffffffffffffffffffffffffffffffffff168173ffffffffffffffffffffffffffffffffffffffff167f8be0079c531659141344cd1fd0a4f28419497f9722a3daafe3b4186f6b6457e060405160405180910390a35050565b600073ffffffffffffffffffffffffffffffffffffffff168273ffffffffffffffffffffffffffffffffffffffff16141562000258576040517f08c379a00000000000000000000000000000000000000000000000000000000081526004016200024f9062000493565b60405180910390fd5b6200026c600083836200035e60201b60201c565b8060026000828254620002809190620004e3565b92505081905550806000808473ffffffffffffffffffffffffffffffffffffffff1673ffffffffffffffffffffffffffffffffffffffff1681526020019081526020016000206000828254620002d79190620004e3565b925050819055508173ffffffffffffffffffffffffffffffffffffffff16600073ffffffffffffffffffffffffffffffffffffffff167fddf252ad1be2c89b69c2b068fc378daa952ba7f163c4a11628f55a4df523b3ef836040516200033e9190620004b5565b60405180910390a36200035a600083836200036360201b60201c565b5050565b505050565b505050565b82805462000376906200054a565b90600052602060002090601f0160209004810192826200039a5760008555620003e6565b82601f10620003b557805160ff1916838001178555620003e6565b82800160010185558215620003e6579182015b82811115620003e5578251825591602001919060010190620003c8565b5b509050620003f59190620003f9565b5090565b5b8082111562000414576000816000905550600101620003fa565b5090565b600081519050620004298162000607565b92915050565b6000602082840312156200044257600080fd5b6000620004528482850162000418565b91505092915050565b60006200046a601f83620004d2565b91506200047782620005de565b602082019050919050565b6200048d8162000540565b82525050565b60006020820190508181036000830152620004ae816200045b565b9050919050565b6000602082019050620004cc600083018462000482565b92915050565b600082825260208201905092915050565b6000620004f08262000540565b9150620004fd8362000540565b9250827fffffffffffffffffffffffffffffffffffffffffffffffffffffffffffffffff0382111562000535576200053462000580565b5b828201905092915050565b6000819050919050565b600060028204905060018216806200056357607f821691505b602082108114156200057a5762000579620005af565b5b50919050565b7f4e487b7100000000000000000000000000000000000000000000000000000000600052601160045260246000fd5b7f4e487b7100000000000000000000000000000000000000000000000000000000600052602260045260246000fd5b7f45524332303a206d696e7420746f20746865207a65726f206164647265737300600082015250565b620006128162000540565b81146200061e57600080fd5b50565b61357880620006316000396000f3fe608060405234801561001057600080fd5b50600436106101215760003560e01c8063715018a6116100ad578063a89a65b811610071578063a89a65b8146102e6578063a9059cbb14610304578063dd62ed3e14610334578063f2fde38b14610364578063f62b46c91461038057610121565b8063715018a6146102545780638da5cb5b1461025e57806395d89b411461027c578063a457c2d71461029a578063a694fc3a146102ca57610121565b8063313ce567116100f4578063313ce567146101c257806339509351146101e05780633ccfd60b146102105780634e71d92d1461021a57806370a082311461022457610121565b806306fdde0314610126578063095ea7b31461014457806318160ddd1461017457806323b872dd14610192575b600080fd5b61012e61039c565b60405161013b919061298a565b60405180910390f35b61015e6004803603810190610159919061259b565b61042e565b60405161016b919061296f565b60405180910390f35b61017c61044c565b6040516101899190612c4c565b60405180910390f35b6101ac60048036038101906101a7919061254c565b610456565b6040516101b9919061296f565b60405180910390f35b6101ca61054e565b6040516101d79190612c90565b60405180910390f35b6101fa60048036038101906101f5919061259b565b610557565b604051610207919061296f565b60405180910390f35b610218610603565b005b61022261061c565b005b61023e600480360381019061023991906124e7565b610628565b60405161024b9190612c4c565b60405180910390f35b61025c610670565b005b6102666106f8565b6040516102739190612954565b60405180910390f35b610284610722565b604051610291919061298a565b60405180910390f35b6102b460048036038101906102af919061259b565b6107b4565b6040516102c1919061296f565b60405180910390f35b6102e460048036038101906102df91906125d7565b61089f565b005b6102ee610943565b6040516102fb9190612c4c565b60405180910390f35b61031e6004803603810190610319919061259b565b610952565b60405161032b919061296f565b60405180910390f35b61034e60048036038101906103499190612510565b610970565b60405161035b9190612c4c565b60405180910390f35b61037e600480360381019061037991906124e7565b6109f7565b005b61039a600480360381019061039591906125d7565b610aef565b005b6060600380546103ab90612e64565b80601f01602080910402602001604051908101604052809291908181526020018280546103d790612e64565b80156104245780601f106103f957610100808354040283529160200191610424565b820191906000526020600020905b81548152906001019060200180831161040757829003601f168201915b5050505050905090565b600061044261043b610b3e565b8484610b46565b6001905092915050565b6000600254905090565b6000610463848484610d11565b6000600160008673ffffffffffffffffffffffffffffffffffffffff1673ffffffffffffffffffffffffffffffffffffffff16815260200190815260200160002060006104ae610b3e565b73ffffffffffffffffffffffffffffffffffffffff1673ffffffffffffffffffffffffffffffffffffffff1681526020019081526020016000205490508281101561052e576040517f08c379a000000000000000000000000000000000000000000000000000000000815260040161052590612b2c565b60405180910390fd5b6105428561053a610b3e565b858403610b46565b60019150509392505050565b60006012905090565b60006105f9610564610b3e565b848460016000610572610b3e565b73ffffffffffffffffffffffffffffffffffffffff1673ffffffffffffffffffffffffffffffffffffffff16815260200190815260200160002060008873ffffffffffffffffffffffffffffffffffffffff1673ffffffffffffffffffffffffffffffffffffffff168152602001908152602001600020546105f49190612cc7565b610b46565b6001905092915050565b600061060d610f92565b90506106193382611593565b50565b61062660006116f3565b565b60008060008373ffffffffffffffffffffffffffffffffffffffff1673ffffffffffffffffffffffffffffffffffffffff168152602001908152602001600020549050919050565b610678610b3e565b73ffffffffffffffffffffffffffffffffffffffff166106966106f8565b73ffffffffffffffffffffffffffffffffffffffff16146106ec576040517f08c379a00000000000000000000000000000000000000000000000000000000081526004016106e390612b4c565b60405180910390fd5b6106f66000611bd1565b565b6000600560009054906101000a900473ffffffffffffffffffffffffffffffffffffffff16905090565b60606004805461073190612e64565b80601f016020809104026020016040519081016040528092919081815260200182805461075d90612e64565b80156107aa5780601f1061077f576101008083540402835291602001916107aa565b820191906000526020600020905b81548152906001019060200180831161078d57829003601f168201915b5050505050905090565b600080600160006107c3610b3e565b73ffffffffffffffffffffffffffffffffffffffff1673ffffffffffffffffffffffffffffffffffffffff16815260200190815260200160002060008573ffffffffffffffffffffffffffffffffffffffff1673ffffffffffffffffffffffffffffffffffffffff16815260200190815260200160002054905082811015610880576040517f08c379a000000000000000000000000000000000000000000000000000000000815260040161087790612c0c565b60405180910390fd5b61089461088b610b3e565b85858403610b46565b600191505092915050565b6108a833610628565b8111156108ea576040517f08c379a00000000000000000000000000000000000000000000000000000000081526004016108e190612aec565b60405180910390fd5b6000811161092d576040517f08c379a000000000000000000000000000000000000000000000000000000000815260040161092490612b6c565b60405180910390fd5b61093681611c97565b6109403382611ee8565b50565b600061094d6120bf565b905090565b600061096661095f610b3e565b8484610d11565b6001905092915050565b6000600160008473ffffffffffffffffffffffffffffffffffffffff1673ffffffffffffffffffffffffffffffffffffffff16815260200190815260200160002060008373ffffffffffffffffffffffffffffffffffffffff1673ffffffffffffffffffffffffffffffffffffffff16815260200190815260200160002054905092915050565b6109ff610b3e565b73ffffffffffffffffffffffffffffffffffffffff16610a1d6106f8565b73ffffffffffffffffffffffffffffffffffffffff1614610a73576040517f08c379a0000000000000000000000000000000000000000000000000000000008152600401610a6a90612b4c565b60405180910390fd5b600073ffffffffffffffffffffffffffffffffffffffff168173ffffffffffffffffffffffffffffffffffffffff161415610ae3576040517f08c379a0000000000000000000000000000000000000000000000000000000008152600401610ada90612a2c565b60405180910390fd5b610aec81611bd1565b50565b60008111610b32576040517f08c379a0000000000000000000000000000000000000000000000000000000008152600401610b29906129cc565b60405180910390fd5b610b3b816116f3565b50565b600033905090565b600073ffffffffffffffffffffffffffffffffffffffff168373ffffffffffffffffffffffffffffffffffffffff161415610bb6576040517f08c379a0000000000000000000000000000000000000000000000000000000008152600401610bad90612bec565b60405180910390fd5b600073ffffffffffffffffffffffffffffffffffffffff168273ffffffffffffffffffffffffffffffffffffffff161415610c26576040517f08c379a0000000000000000000000000000000000000000000000000000000008152600401610c1d90612a4c565b60405180910390fd5b80600160008573ffffffffffffffffffffffffffffffffffffffff1673ffffffffffffffffffffffffffffffffffffffff16815260200190815260200160002060008473ffffffffffffffffffffffffffffffffffffffff1673ffffffffffffffffffffffffffffffffffffffff168152602001908152602001600020819055508173ffffffffffffffffffffffffffffffffffffffff168373ffffffffffffffffffffffffffffffffffffffff167f8c5be1e5ebec7d5bd14f71427d1e84f3dd0314c0f7b2291e5b200ac8c7c3b92583604051610d049190612c4c565b60405180910390a3505050565b600073ffffffffffffffffffffffffffffffffffffffff168373ffffffffffffffffffffffffffffffffffffffff161415610d81576040517f08c379a0000000000000000000000000000000000000000000000000000000008152600401610d7890612bcc565b60405180910390fd5b600073ffffffffffffffffffffffffffffffffffffffff168273ffffffffffffffffffffffffffffffffffffffff161415610df1576040517f08c379a0000000000000000000000000000000000000000000000000000000008152600401610de8906129ac565b60405180910390fd5b610dfc8383836122be565b60008060008573ffffffffffffffffffffffffffffffffffffffff1673ffffffffffffffffffffffffffffffffffffffff16815260200190815260200160002054905081811015610e82576040517f08c379a0000000000000000000000000000000000000000000000000000000008152600401610e7990612acc565b60405180910390fd5b8181036000808673ffffffffffffffffffffffffffffffffffffffff1673ffffffffffffffffffffffffffffffffffffffff16815260200190815260200160002081905550816000808573ffffffffffffffffffffffffffffffffffffffff1673ffffffffffffffffffffffffffffffffffffffff1681526020019081526020016000206000828254610f159190612cc7565b925050819055508273ffffffffffffffffffffffffffffffffffffffff168473ffffffffffffffffffffffffffffffffffffffff167fddf252ad1be2c89b69c2b068fc378daa952ba7f163c4a11628f55a4df523b3ef84604051610f799190612c4c565b60405180910390a3610f8c8484846122c3565b50505050565b60008060009050600073ffffffffffffffffffffffffffffffffffffffff16600660003373ffffffffffffffffffffffffffffffffffffffff1673ffffffffffffffffffffffffffffffffffffffff16815260200190815260200160002060000160009054906101000a900473ffffffffffffffffffffffffffffffffffffffff1673ffffffffffffffffffffffffffffffffffffffff16141561106b576040517f08c379a000000000000000000000000000000000000000000000000000000000815260040161106290612aac565b60405180910390fd5b62015180600660003373ffffffffffffffffffffffffffffffffffffffff1673ffffffffffffffffffffffffffffffffffffffff1681526020019081526020016000206001016000815481106110ea577f4e487b7100000000000000000000000000000000000000000000000000000000600052603260045260246000fd5b906000526020600020906002020160010154426111079190612da8565b11611147576040517f08c379a000000000000000000000000000000000000000000000000000000000815260040161113e90612a6c565b60405180910390fd5b6000600660003373ffffffffffffffffffffffffffffffffffffffff1673ffffffffffffffffffffffffffffffffffffffff1681526020019081526020016000206001018054905014156111d0576040517f08c379a00000000000000000000000000000000000000000000000000000000081526004016111c790612a0c565b60405180910390fd5b6000600660003373ffffffffffffffffffffffffffffffffffffffff1673ffffffffffffffffffffffffffffffffffffffff168152602001908152602001600020600101805480602002602001604051908101604052809291908181526020016000905b8282101561127a57838290600052602060002090600202016040518060400160405290816000820154815260200160018201548152505081526020019060010190611234565b505050509050600660003373ffffffffffffffffffffffffffffffffffffffff1673ffffffffffffffffffffffffffffffffffffffff16815260200190815260200160002060010160006112ce9190612427565b60005b81518110156114615762015180828281518110611317577f4e487b7100000000000000000000000000000000000000000000000000000000600052603260045260246000fd5b6020026020010151602001514261132e9190612da8565b111561138b5781818151811061136d577f4e487b7100000000000000000000000000000000000000000000000000000000600052603260045260246000fd5b602002602001015160000151836113849190612cc7565b925061144e565b600660003373ffffffffffffffffffffffffffffffffffffffff1673ffffffffffffffffffffffffffffffffffffffff168152602001908152602001600020600101828281518110611406577f4e487b7100000000000000000000000000000000000000000000000000000000600052603260045260246000fd5b60200260200101519080600181540180825580915050600190039060005260206000209060020201600090919091909150600082015181600001556020820151816001015550505b808061145990612e96565b9150506112d1565b506000600660003373ffffffffffffffffffffffffffffffffffffffff1673ffffffffffffffffffffffffffffffffffffffff168152602001908152602001600020600201805490501480156114fc57506000600660003373ffffffffffffffffffffffffffffffffffffffff1673ffffffffffffffffffffffffffffffffffffffff16815260200190815260200160002060010180549050145b1561158b57600660003373ffffffffffffffffffffffffffffffffffffffff1673ffffffffffffffffffffffffffffffffffffffff168152602001908152602001600020600080820160006101000a81549073ffffffffffffffffffffffffffffffffffffffff02191690556001820160006115789190612427565b600282016000611588919061244b565b50505b819250505090565b600073ffffffffffffffffffffffffffffffffffffffff168273ffffffffffffffffffffffffffffffffffffffff161415611603576040517f08c379a00000000000000000000000000000000000000000000000000000000081526004016115fa90612c2c565b60405180910390fd5b61160f600083836122be565b80600260008282546116219190612cc7565b92505081905550806000808473ffffffffffffffffffffffffffffffffffffffff1673ffffffffffffffffffffffffffffffffffffffff16815260200190815260200160002060008282546116769190612cc7565b925050819055508173ffffffffffffffffffffffffffffffffffffffff16600073ffffffffffffffffffffffffffffffffffffffff167fddf252ad1be2c89b69c2b068fc378daa952ba7f163c4a11628f55a4df523b3ef836040516116db9190612c4c565b60405180910390a36116ef600083836122c3565b5050565b600073ffffffffffffffffffffffffffffffffffffffff16600660003373ffffffffffffffffffffffffffffffffffffffff1673ffffffffffffffffffffffffffffffffffffffff16815260200190815260200160002060000160009054906101000a900473ffffffffffffffffffffffffffffffffffffffff1673ffffffffffffffffffffffffffffffffffffffff1614156117c5576040517f08c379a00000000000000000000000000000000000000000000000000000000081526004016117bc90612aac565b60405180910390fd5b6000600660003373ffffffffffffffffffffffffffffffffffffffff1673ffffffffffffffffffffffffffffffffffffffff168152602001908152602001600020600201805480602002602001604051908101604052809291908181526020016000905b8282101561186f57838290600052602060002090600202016040518060400160405290816000820154815260200160018201548152505081526020019060010190611829565b50505050905060008060005b83518110156119de57620151808482815181106118c1577f4e487b7100000000000000000000000000000000000000000000000000000000600052603260045260246000fd5b602002602001015160200151426118d89190612da8565b1115611979576000600f905060648311156118f6576010905061191a565b6103e88311156119095760119050611919565b6105dc83111561191857601290505b5b5b6000611966868481518110611958577f4e487b7100000000000000000000000000000000000000000000000000000000600052603260045260246000fd5b6020026020010151836122c8565b905080856119749190612cc7565b945050505b8381815181106119b2577f4e487b7100000000000000000000000000000000000000000000000000000000600052603260045260246000fd5b602002602001015160000151826119c99190612cc7565b915080806119d690612e96565b91505061187b565b5083811015611a22576040517f08c379a0000000000000000000000000000000000000000000000000000000008152600401611a1990612b8c565b60405180910390fd5b600660003373ffffffffffffffffffffffffffffffffffffffff1673ffffffffffffffffffffffffffffffffffffffff1681526020019081526020016000206002016000611a70919061244b565b6000841115611a96578381611a859190612da8565b90508382611a939190612cc7565b91505b60008114611b3557600660003373ffffffffffffffffffffffffffffffffffffffff1673ffffffffffffffffffffffffffffffffffffffff1681526020019081526020016000206002016040518060400160405280838152602001428152509080600181540180825580915050600190039060005260206000209060020201600090919091909150600082015181600001556020820151816001015550505b600660003373ffffffffffffffffffffffffffffffffffffffff1673ffffffffffffffffffffffffffffffffffffffff16815260200190815260200160002060010160405180604001604052808481526020014281525090806001815401808255809150506001900390600052602060002090600202016000909190919091506000820151816000015560208201518160010155505050505050565b6000600560009054906101000a900473ffffffffffffffffffffffffffffffffffffffff16905081600560006101000a81548173ffffffffffffffffffffffffffffffffffffffff021916908373ffffffffffffffffffffffffffffffffffffffff1602179055508173ffffffffffffffffffffffffffffffffffffffff168173ffffffffffffffffffffffffffffffffffffffff167f8be0079c531659141344cd1fd0a4f28419497f9722a3daafe3b4186f6b6457e060405160405180910390a35050565b6000811415611cdb576040517f08c379a0000000000000000000000000000000000000000000000000000000008152600401611cd290612b0c565b60405180910390fd5b600073ffffffffffffffffffffffffffffffffffffffff163373ffffffffffffffffffffffffffffffffffffffff161415611d4b576040517f08c379a0000000000000000000000000000000000000000000000000000000008152600401611d4290612a8c565b60405180910390fd5b6000429050600073ffffffffffffffffffffffffffffffffffffffff16600660003373ffffffffffffffffffffffffffffffffffffffff1673ffffffffffffffffffffffffffffffffffffffff16815260200190815260200160002060000160009054906101000a900473ffffffffffffffffffffffffffffffffffffffff1673ffffffffffffffffffffffffffffffffffffffff161415611df157611df033612333565b5b600660003373ffffffffffffffffffffffffffffffffffffffff1673ffffffffffffffffffffffffffffffffffffffff168152602001908152602001600020600201604051806040016040528060075485611e4c9190612d4e565b8152602001838152509080600181540180825580915050600190039060005260206000209060020201600090919091909150600082015181600001556020820151816001015550503373ffffffffffffffffffffffffffffffffffffffff167f1449c6dd7851abc30abf37f57715f492010519147cc2652fbc38202c18a6ee908383604051611edc929190612c67565b60405180910390a25050565b600073ffffffffffffffffffffffffffffffffffffffff168273ffffffffffffffffffffffffffffffffffffffff161415611f58576040517f08c379a0000000000000000000000000000000000000000000000000000000008152600401611f4f90612bac565b60405180910390fd5b611f64826000836122be565b60008060008473ffffffffffffffffffffffffffffffffffffffff1673ffffffffffffffffffffffffffffffffffffffff16815260200190815260200160002054905081811015611fea576040517f08c379a0000000000000000000000000000000000000000000000000000000008152600401611fe1906129ec565b60405180910390fd5b8181036000808573ffffffffffffffffffffffffffffffffffffffff1673ffffffffffffffffffffffffffffffffffffffff1681526020019081526020016000208190555081600260008282546120419190612da8565b92505081905550600073ffffffffffffffffffffffffffffffffffffffff168373ffffffffffffffffffffffffffffffffffffffff167fddf252ad1be2c89b69c2b068fc378daa952ba7f163c4a11628f55a4df523b3ef846040516120a69190612c4c565b60405180910390a36120ba836000846122c3565b505050565b60008073ffffffffffffffffffffffffffffffffffffffff16600660003373ffffffffffffffffffffffffffffffffffffffff1673ffffffffffffffffffffffffffffffffffffffff16815260200190815260200160002060000160009054906101000a900473ffffffffffffffffffffffffffffffffffffffff1673ffffffffffffffffffffffffffffffffffffffff161415612192576040517f08c379a000000000000000000000000000000000000000000000000000000000815260040161218990612aac565b60405180910390fd5b600080600660003373ffffffffffffffffffffffffffffffffffffffff1673ffffffffffffffffffffffffffffffffffffffff168152602001908152602001600020600201805480602002602001604051908101604052809291908181526020016000905b8282101561223d578382906000526020600020906002020160405180604001604052908160008201548152602001600182015481525050815260200190600101906121f7565b50505050905060005b81518110156122b557818181518110612288577f4e487b7100000000000000000000000000000000000000000000000000000000600052603260045260246000fd5b6020026020010151600001518361229f9190612cc7565b92506001816122ae9190612cc7565b9050612246565b50819250505090565b505050565b505050565b600080836000015190506000610e108560200151426122e79190612da8565b6122f19190612d1d565b9050600061223890508060646123079190612d4e565b8584846123149190612d4e565b61231e9190612d4e565b6123289190612d1d565b935050505092915050565b600073ffffffffffffffffffffffffffffffffffffffff168173ffffffffffffffffffffffffffffffffffffffff1614156123a3576040517f08c379a000000000000000000000000000000000000000000000000000000000815260040161239a90612a8c565b60405180910390fd5b80600660003373ffffffffffffffffffffffffffffffffffffffff1673ffffffffffffffffffffffffffffffffffffffff16815260200190815260200160002060000160006101000a81548173ffffffffffffffffffffffffffffffffffffffff021916908373ffffffffffffffffffffffffffffffffffffffff16021790555050565b5080546000825560020290600052602060002090810190612448919061246f565b50565b508054600082556002029060005260206000209081019061246c9190612496565b50565b5b8082111561249257600080820160009055600182016000905550600201612470565b5090565b5b808211156124b957600080820160009055600182016000905550600201612497565b5090565b6000813590506124cc81613514565b92915050565b6000813590506124e18161352b565b92915050565b6000602082840312156124f957600080fd5b6000612507848285016124bd565b91505092915050565b6000806040838503121561252357600080fd5b6000612531858286016124bd565b9250506020612542858286016124bd565b9150509250929050565b60008060006060848603121561256157600080fd5b600061256f868287016124bd565b9350506020612580868287016124bd565b9250506040612591868287016124d2565b9150509250925092565b600080604083850312156125ae57600080fd5b60006125bc858286016124bd565b92505060206125cd858286016124d2565b9150509250929050565b6000602082840312156125e957600080fd5b60006125f7848285016124d2565b91505092915050565b61260981612ddc565b82525050565b61261881612dee565b82525050565b600061262982612cab565b6126338185612cb6565b9350612643818560208601612e31565b61264c81612f6c565b840191505092915050565b6000612664602383612cb6565b915061266f82612f7d565b604082019050919050565b6000612687603783612cb6565b915061269282612fcc565b604082019050919050565b60006126aa602283612cb6565b91506126b58261301b565b604082019050919050565b60006126cd601383612cb6565b91506126d88261306a565b602082019050919050565b60006126f0602683612cb6565b91506126fb82613093565b604082019050919050565b6000612713602283612cb6565b915061271e826130e2565b604082019050919050565b6000612736603283612cb6565b915061274182613131565b604082019050919050565b6000612759601e83612cb6565b915061276482613180565b602082019050919050565b600061277c602183612cb6565b9150612787826131a9565b604082019050919050565b600061279f602683612cb6565b91506127aa826131f8565b604082019050919050565b60006127c2601f83612cb6565b91506127cd82613247565b602082019050919050565b60006127e5601883612cb6565b91506127f082613270565b602082019050919050565b6000612808602883612cb6565b915061281382613299565b604082019050919050565b600061282b602083612cb6565b9150612836826132e8565b602082019050919050565b600061284e602683612cb6565b915061285982613311565b604082019050919050565b6000612871602183612cb6565b915061287c82613360565b604082019050919050565b6000612894602183612cb6565b915061289f826133af565b604082019050919050565b60006128b7602583612cb6565b91506128c2826133fe565b604082019050919050565b60006128da602483612cb6565b91506128e58261344d565b604082019050919050565b60006128fd602583612cb6565b91506129088261349c565b604082019050919050565b6000612920601f83612cb6565b915061292b826134eb565b602082019050919050565b61293f81612e1a565b82525050565b61294e81612e24565b82525050565b60006020820190506129696000830184612600565b92915050565b6000602082019050612984600083018461260f565b92915050565b600060208201905081810360008301526129a4818461261e565b905092915050565b600060208201905081810360008301526129c581612657565b9050919050565b600060208201905081810360008301526129e58161267a565b9050919050565b60006020820190508181036000830152612a058161269d565b9050919050565b60006020820190508181036000830152612a25816126c0565b9050919050565b60006020820190508181036000830152612a45816126e3565b9050919050565b60006020820190508181036000830152612a6581612706565b9050919050565b60006020820190508181036000830152612a8581612729565b9050919050565b60006020820190508181036000830152612aa58161274c565b9050919050565b60006020820190508181036000830152612ac58161276f565b9050919050565b60006020820190508181036000830152612ae581612792565b9050919050565b60006020820190508181036000830152612b05816127b5565b9050919050565b60006020820190508181036000830152612b25816127d8565b9050919050565b60006020820190508181036000830152612b45816127fb565b9050919050565b60006020820190508181036000830152612b658161281e565b9050919050565b60006020820190508181036000830152612b8581612841565b9050919050565b60006020820190508181036000830152612ba581612864565b9050919050565b60006020820190508181036000830152612bc581612887565b9050919050565b60006020820190508181036000830152612be5816128aa565b9050919050565b60006020820190508181036000830152612c05816128cd565b9050919050565b60006020820190508181036000830152612c25816128f0565b9050919050565b60006020820190508181036000830152612c4581612913565b9050919050565b6000602082019050612c616000830184612936565b92915050565b6000604082019050612c7c6000830185612936565b612c896020830184612936565b9392505050565b6000602082019050612ca56000830184612945565b92915050565b600081519050919050565b600082825260208201905092915050565b6000612cd282612e1a565b9150612cdd83612e1a565b9250827fffffffffffffffffffffffffffffffffffffffffffffffffffffffffffffffff03821115612d1257612d11612edf565b5b828201905092915050565b6000612d2882612e1a565b9150612d3383612e1a565b925082612d4357612d42612f0e565b5b828204905092915050565b6000612d5982612e1a565b9150612d6483612e1a565b9250817fffffffffffffffffffffffffffffffffffffffffffffffffffffffffffffffff0483118215151615612d9d57612d9c612edf565b5b828202905092915050565b6000612db382612e1a565b9150612dbe83612e1a565b925082821015612dd157612dd0612edf565b5b828203905092915050565b6000612de782612dfa565b9050919050565b60008115159050919050565b600073ffffffffffffffffffffffffffffffffffffffff82169050919050565b6000819050919050565b600060ff82169050919050565b60005b83811015612e4f578082015181840152602081019050612e34565b83811115612e5e576000848401525b50505050565b60006002820490506001821680612e7c57607f821691505b60208210811415612e9057612e8f612f3d565b5b50919050565b6000612ea182612e1a565b91507fffffffffffffffffffffffffffffffffffffffffffffffffffffffffffffffff821415612ed457612ed3612edf565b5b600182019050919050565b7f4e487b7100000000000000000000000000000000000000000000000000000000600052601160045260246000fd5b7f4e487b7100000000000000000000000000000000000000000000000000000000600052601260045260246000fd5b7f4e487b7100000000000000000000000000000000000000000000000000000000600052602260045260246000fd5b6000601f19601f8301169050919050565b7f45524332303a207472616e7366657220746f20746865207a65726f206164647260008201527f6573730000000000000000000000000000000000000000000000000000000000602082015250565b7f4966206974206e6565646564206e6f7468696e6720746f20776974686472617760008201527f2c2063616c6c20636c61696d28292066756e6374696f6e000000000000000000602082015250565b7f45524332303a206275726e20616d6f756e7420657863656564732062616c616e60008201527f6365000000000000000000000000000000000000000000000000000000000000602082015250565b7f4e6f7468696e6720746f20776974686472617700000000000000000000000000600082015250565b7f4f776e61626c653a206e6577206f776e657220697320746865207a65726f206160008201527f6464726573730000000000000000000000000000000000000000000000000000602082015250565b7f45524332303a20617070726f766520746f20746865207a65726f20616464726560008201527f7373000000000000000000000000000000000000000000000000000000000000602082015250565b7f43616e2774207769746864726177206966206c657373207468616e203120646160008201527f79207061737420616674657220636c61696d0000000000000000000000000000602082015250565b7f43616e6e6f74207374616b652066726f6d207a65726f20616464726573730000600082015250565b7f5468652075736572206973206e6f742061207374616b65686f6c64657220796560008201527f7400000000000000000000000000000000000000000000000000000000000000602082015250565b7f45524332303a207472616e7366657220616d6f756e742065786365656473206260008201527f616c616e63650000000000000000000000000000000000000000000000000000602082015250565b7f43616e6e6f74207374616b65206d6f7265207468616e20796f75206f776e7300600082015250565b7f43616e6e6f74207374616b65207a65726f20746f6b656e730000000000000000600082015250565b7f45524332303a207472616e7366657220616d6f756e742065786365656473206160008201527f6c6c6f77616e6365000000000000000000000000000000000000000000000000602082015250565b7f4f776e61626c653a2063616c6c6572206973206e6f7420746865206f776e6572600082015250565b7f4e65656420746f207374616b6520736d74682c2063616e74207374616b65206e60008201527f6f7468696e670000000000000000000000000000000000000000000000000000602082015250565b7f43616e6e6f74207769746864726177206d6f7265207468616e20796f75206f7760008201527f6e00000000000000000000000000000000000000000000000000000000000000602082015250565b7f45524332303a206275726e2066726f6d20746865207a65726f2061646472657360008201527f7300000000000000000000000000000000000000000000000000000000000000602082015250565b7f45524332303a207472616e736665722066726f6d20746865207a65726f20616460008201527f6472657373000000000000000000000000000000000000000000000000000000602082015250565b7f45524332303a20617070726f76652066726f6d20746865207a65726f2061646460008201527f7265737300000000000000000000000000000000000000000000000000000000602082015250565b7f45524332303a2064656372656173656420616c6c6f77616e63652062656c6f7760008201527f207a65726f000000000000000000000000000000000000000000000000000000602082015250565b7f45524332303a206d696e7420746f20746865207a65726f206164647265737300600082015250565b61351d81612ddc565b811461352857600080fd5b50565b61353481612e1a565b811461353f57600080fd5b5056fea26469706673582212205f11b31cd966af7fde2d6766bcef19cbd70e4e952aec9425e6d9433ccd5fd7b464736f6c63430008040033",
  "linkReferences": {},
  "deployedLinkReferences": {}
}